:020000040800F2
:1000000000000820CD060008CD100008CF10000821
:10001000D1100008D3100008D5100008000000001F
:10002000000000000000000000000000D7100008E1
:10003000D910000800000000DB100008DD100008E7
:100040001D0700081D0700081D0700081D07000800
:100050001D0700081D0700081D0700081D070008F0
:100060001D0700081D0700081D0700081D070008E0
:100070001D0700081D0700081D0700081D070008D0
:100080001D0700081D0700081D0700081D070008C0
:100090001D0700081D0700081D0700081D070008B0
:1000A0001D0700081D0700081D0700081D070008A0
:1000B0001D0700081D0700081D0700081D07000890
:1000C0001D0700081D0700081D0700081D07000880
:1000D0001D0700081D0700081D0700081D07000870
:1000E0001D0700081D0700081D0700081D07000860
:1000F0001D0700081D0700081D0700081D07000850
:100100001D0700081D0700081D0700081D0700083F
:100110001D0700081D0700081D0700081D0700082F
:100120001D0700081D0700081D0700081D0700081F
:100130001D0700081D0700081D0700081D0700080F
:100140001D0700081D0700081D0700081D070008FF
:100150001D0700081D0700081D0700081D070008EF
:100160001D0700081D0700081D0700081D070008DF
:100170001D0700081D0700081D07000800000000FB
:100180001D0700081D0700081D0700081D070008BF
:100190001D0700081D0700081D0700081D070008AF
:1001A0001D0700081D0700081D0700081D0700089F
:1001B0001D0700081D0700081D0700081D0700088F
:1001C0001D0700081D0700081D0700081D0700087F
:1001D0001D0700081D0700081D0700081D0700086F
:1001E0001D0700081D0700081D0700081D0700085F
:0801F0001D0700081D070008AF
:1001F8001C309FE51C009FE5033060E0060053E3D8
:100208001EFF2F9110309FE5000053E31EFF2F01C2
:1002180013FF2FE13B0400203804002000000000F9
:1002280024109FE524009FE5011060E04111A0E142
:10023800A11F81E0C110B0E11EFF2F0110309FE522
:10024800000053E31EFF2F0113FF2FE138040020A5
:10025800380400200000000010402DE92C409FE5E4
:100268000030D4E5000053E30600001ADFFFFFEB7F
:100278001C309FE5000053E318009F1500F0201381
:100288000130A0E30030C4E51040BDE81EFF2FE1B7
:1002980038040020000000000C13000808402DE975
:1002A8003C309FE5000053E338009F1538109F1538
:1002B80000F0201334009FE5003090E5000053E380
:1002C8000100001A0840BDE8D4FFFFEA20309FE58E
:1002D800000053E3FAFFFF0A0FE0A0E113FF2FE14C
:1002E800F7FFFFEA000000000C1300083C040020A0
:1002F8003804002000000000000053E3000052030F
:100308000400001A000051E3000050030010E0133D
:100318000000E013270000EA08D04DE200602DE954
:10032800140000EB04E09DE508D08DE20C00BDE868
:100338001EFF2FE1F0472DE920609DE50270A0E146
:1003480003A0A0E10040A0E10150A0E11A0000EBE9
:100358000030A0E1970102E0978089E09A2323E02A
:10036800084054E0099083E00950C5E0300086E871
:10037800F047BDE81EFF2FE1F0412DE918509DE53B
:100388000240A0E10380A0E10060A0E10170A0E1CB
:10039800670000EB900808E0902483E0918424E053
:1003A800026056E0033084E00370C7E0C00085E8CF
:1003B800F041BDE81EFF2FE11EFF2FE1000051E3D1
:1003C800F84F2DE90040A0A10150A0A100A0A0A3D2
:1003D800530000BA000053E30280A0A10390A0A13B
:1003E8004B0000BA090055E1080054010020A03371
:1003F8000030A0333B00003A0910A0E10800A0E15A
:10040800930000EB0510A0E100B0A0E10400A0E11A
:100418008F0000EB0B0060E020E040E21970A0E1E3
:10042800187E87E120C060E2387C87E1070055E14B
:100438001860A0E1060054010010A0E10020A033DC
:100448000030A0330500003A0180A0E3064054E0E4
:10045800183EA0E1383C83E10750C5E01820A0E130
:10046800000050E31F00000AA770B0E16660A0E139
:10047800070000EA064054E00750C5E0044094E055
:100488000550A5E0014094E20050A5E2010050E2C9
:100498000600000A050057E104005601F4FFFF9A20
:1004A800044094E00550A5E0010050E2F8FFFF1A6F
:1004B80020C061E23401A0E1042092E020E041E2A2
:1004C800150C80E13541A0E1350E80E11471A0E101
:1004D800107E87E11061A0E10530A3E0307C87E160
:1004E800062052E00730C3E000009AE20100A013A2
:1004F8000010A0E3004070E20050E1E2042022E096
:10050800053023E0020090E00310A1E0F84FBDE8B9
:100518001EFF2FE1008072E20AA0E0E10090E3E212
:10052800AFFFFFEA004070E20050E1E200A0E0E324
:10053800A7FFFFEA030051E102005001F0472DE94F
:100548000040A0E10150A0E10280A0E10390A0E1F9
:100558000000A0330010A0333B00003A0310A0E1D4
:100568000200A0E13A0000EB0510A0E100A0A0E124
:100578000400A0E1360000EB0A3060E020E043E22E
:100588001973A0E1187E87E120C063E2387C87E117
:10059800070055E11863A0E1060054010320A0E11B
:1005A8000000A0330010A0330500003A0180A0E34A
:1005B800064054E0181EA0E1381C81E10750C5E050
:1005C8001803A0E1000053E31F00000AA770B0E180
:1005D8006660A0E1070000EA064054E00750C5E065
:1005E800044094E00550A5E0014094E20050A5E2E3
:1005F800013053E20600000A050057E104005601E5
:10060800F4FFFF9A044094E00550A5E0013053E25E
:10061800F8FFFF1A008094E00190A5E03432A0E1D1
:10062800201062E2200042E2153183E135C2A0E1E8
:10063800353083E11C72A0E1137087E11362A0E1F9
:10064800337187E1060058E00710C9E0F047BDE8BC
:100658001EFF2FE110402DE9000051E30200001AAF
:10066800050000EB200080E2010000EA0100A0E1A3
:10067800010000EB1040BDE81EFF2FE11C10A0E3B5
:10068800010850E32008A02110104122010C50E37A
:100698002004A02108104122100050E32002A021CC
:1006A8000410412208208FE20000D2E7010080E018
:1006B8001EFF2FE1040302020101010100000000F6
:1006C80000000000DFF834D0002103E00C4B5B5839
:1006D800435004310B480C4B42189A42F6D30B4A4C
:1006E80002E0002342F8043B094B9A42F9D300F098
:1006F800F3FC00F045FD00F00FF8704700000820FB
:100708006813000800000020380400203804002086
:100718006C040020FEE70000F0B595B0BFF34F8FE2
:10072800BFF36F8F484B0021C3F850125A6942F447
:1007380000325A61BFF34F8FBFF36F8FC3F8841035
:10074800BFF34F8FD3F88020C2F34E33C2F3C902F0
:10075800590143F6E0740C40114644EA81753A4861
:1007680011F1FF31C0F86052F7D213F1FF33EFD225
:10077800BFF34F8F436943F480334361BFF34F8F17
:10078800BFF36F8F314C00F08FF802250126236CE0
:10079800072707A843F080532364236C03F0805392
:1007A8000093009B2A4B1A6842F440421A601B6867
:1007B800079603F440430D9511950193019B4FF45F
:1007C8008033139708934FF480030E9319230F93E4
:1007D8004FF4D87310930923129300F015FA00B15F
:1007E800FEE700F0D9F900B1FEE70F23049039467F
:1007F80002A802934FF4A053039505934FF4805336
:10080800069300F0C7FB00B1FEE7236B114843F0E5
:1008180004032363236B104C03F004032146666032
:100828000793079B0323E3604023236000F0C4F889
:10083800802308482146236000F0BEF80548C021FF
:10084800002200F0A5F9F9E700ED00E000380240C9
:100858000070004000080240540400207047000067
:1008680038B50E4B05460E4A18784FF47A73B3FB29
:10087800F0F31068B0FBF3F000F088F8044658B9BC
:100888000F2D09D84FF0FF302946224600F046F8D0
:10089800044B20461D6038BD012038BD04000020EF
:1008A800080000200000002008B5094B03201A6842
:1008B80042F400721A601A6842F480721A6000F0FA
:1008C8001BF80F20FFF7CCFFFFF7C8FF002008BD7B
:1008D800003C0240034A0449136809780B4413603A
:1008E800704700BF6804002004000020014B18680E
:1008F800704700BF68040020074A00F00700D3686B
:1009080023F4E0631B041B0C43F0BF6343F4003380
:1009180043EA0023D360704700ED00E0194BDB6821
:10092800C3F3022370B5C3F107051C1D042D28BFAE
:100938000425062C4FF001048CBF033B002300283C
:1009480004FA03F604FA05F404F1FF3406F1FF365D
:1009580001EA040102EA060201FA03F142EA01028D
:100968004FEA021205DA00F00F00D2B2064B1A5411
:1009780070BD00F16040D2B200F5614080F80023FC
:1009880070BD00BF00ED00E014ED00E00138B0F1EB
:10099800807F0AD2064BF021064A5860002082F870
:1009A8002310072298601A6070470120704700BF23
:1009B80010E000E000ED00E02DE9F34100220F68AF
:1009C8000123934003EA07059D4240F0D4804C6818
:1009D80024F0100CBCF1020F14D14FEAD20E02F031
:1009E80007064FF00F0800EB8E0EB600DEF8203039
:1009F80008FA06F823EA08080B69B34048EA030333
:100A0800CEF820304FEA420E032306680CF1FF3C73
:100A180003FA0EF3BCF1010F6FEA030303EA0608B9
:100A280004F0030606FA0EF648EA0606066011D830
:100A3800866803EA060CCE6806FA0EF64CEA060645
:100A48008660466826EA050CC4F3001696404CEA10
:100A580006064660C66803EA060C8B6803FA0EF6BB
:100A68004CEA0603C360E30040F18580454B02F081
:100A7800030C5E6C4FEA8C0C46F480465E6422F0F0
:100A880003065B6C06F1804603F4804306F59C364A
:100A98000193019B0F23D6F808E003FA0CF32EEA22
:100AA800030E394B984226D003F58063984224D030
:100AB80003F58063984222D003F58063984220D0E2
:100AC80003F5806398421ED003F5806398421CD0DA
:100AD80003F5806398421AD003F58063984218D0D2
:100AE80003F58063984216D003F5806398420CBFE3
:100AF80009230A2310E000230EE001230CE002235F
:100B08000AE0032308E0042306E0052304E00623A3
:100B180002E0072300E0082303FA0CF314F4803FF3
:100B280043EA0E03DFF864E0B3606FEA0506DEF817
:100B3800003014BF2B43334014F4003FCEF800308C
:100B4800DEF80430DFF844E014BF2B43334014F4DC
:100B5800801FCEF80430DEF8083014BF2B43334032
:100B6800A402CEF80830DEF80C3054BF06EA0305BC
:100B78001D43064BDD600132102A7FF421AF02B01D
:100B8800BDE8F0810038024000000240003C01400E
:100B980002B9090481617047194B1A6C42F08052FE
:100BA80013B51A641B6C174A03F080530193019B19
:100BB800136843F480331360FFF798FE0446114B23
:100BC8005A68D20307D4FFF791FE001BB0F57A7F6D
:100BD800F5D9032012E01A6842F400321A60FFF7D0
:100BE80085FE0446074B5B689B0306D4FFF77EFE31
:100BF800001BB0F57A7FF5D9EBE7002002B010BDF5
:100C0800003802400070004073B5044608B901205E
:100C180088E10368D80703D42368990752D49AE077
:100C2800994B9A6802F00C02042A07D09A6802F0DD
:100C38000C02082A0AD15B685A0207D5924B1B6836
:100C48009B03E9D56368002BE6D1E0E762688E4B29
:100C5800B2F5803F13D05AB91A6822F480321A606C
:100C68001A6822F480221A60FFF740FE054624E045
:100C7800B2F5A02F1A6806D142F480221A601A68C9
:100C880042F4803205E022F480321A601A6822F4B5
:100C980080221A60FFF72AFE05467B4B1B689E03DD
:100CA800BAD4FFF723FE401B6428F6D9032039E1A4
:100CB800FFF71CFE401B6428F8D8734B1B68980389
:100CC800F6D4A9E7704B9A6812F00C0F07D09A680F
:100CD80002F00C02082A11D15B6859020ED46A4B43
:100CE8001A68920702D5E268012A90D11A68216928
:100CF80022F0F80242EAC1021A602CE0E268624B74
:100D0800C2B11A6842F001021A60FFF7EFFD05460A
:100D18005D4A13689E0705D4FFF7E8FD401B0228CB
:100D2800F6D9C3E71368216923F0F80343EAC1033E
:100D3800136010E01A6822F001021A60FFF7D6FD6E
:100D48000546514B1B68980705D5FFF7CFFD401B9B
:100D58000228F6D9AAE72368190703D423685A0793
:100D680025D48DE06269484B82B15A6F42F0010286
:100D78005A67FFF7BBFD0546434B5B6F9B07EDD4F6
:100D8800FFF7B4FD401B0228F6D98FE75A6F22F00F
:100D980001025A67FFF7AAFD05463B4B5B6F9E07AA
:100DA800DCD5FFF7A3FD401B0228F6D97EE7364BBA
:100DB8001A6CD5000AD41A6C012542F080521A64C4
:100DC8001B6C03F080530193019B00E000252F4B1F
:100DD8001A68D00504D5A2682B4B012A11D123E04B
:100DE8001A6842F480721A60FFF780FD0646274BA6
:100DF8001B68D905EFD4FFF779FD801B6428F6D965
:100E080054E75AB91A6F22F001021A671A6F22F0D2
:100E180004021A67FFF76AFD064627E0052A1A6FDB
:100E280006D142F004021A671A6F42F0010205E087
:100E380022F001021A671A6F22F004021A67FFF7FC
:100E480055FD0646104B1B6F9A0713D4FFF74EFD4E
:100E580041F28833801B9842F4D927E7FFF746FD13
:100E680041F28833801B98423FF620AF064B1B6F38
:100E78009B07F3D425B1044A136C23F08053136401
:100E8800A16929B900204DE00038024000700040F7
:100E9800254B9A6802F00C02082A3FF4B8AE1A688B
:100EA800022922F080721A602FD1FFF71FFD054634
:100EB8001D490B68980105D5FFF718FD401B02284E
:100EC800F6D9F3E6226AE3691343626A43EA8213B6
:100ED800E26A43EA0263226B43EA0272A36A5B088E
:100EE800013B42EA03434B600B6843F080730B609D
:100EF800FFF7FCFC04460C4B1B689A01C2D4FFF7B1
:100F0800F5FC001B0228F6D9D0E6FFF7EFFC0446F3
:100F1800054B1B689B01B5D5FFF7E8FC001B0228B1
:100F2800F6D9C3E602B070BD00380240164908B5CC
:100F38008B6803F00C03042B02D0082B02D021E0AD
:100F4800124808BD4A684B6802F03F0213F4800358
:100F580007D04B680D48C3F38813A3FB0001002397
:100F680005E049680A48C1F38811A1FB0001FFF7B1
:100F7800C3F9054B5B68C3F3014301335B00B0FB66
:100F8800F3F008BD024808BD0038024040787D01F2
:100F98000024F40070B50D46044608B9012070BD60
:100FA800444A136803F00F03994203D8226896074E
:100FB8000BD41EE0136823F00F030B431360136870
:100FC80003F00F038B42E9D1F0E712F0040F3A4B1C
:100FD80003D0996841F4E0519960100703D59968E6
:100FE80041F460419960996821F0F000A1680143DB
:100FF8009960D10706D42F4A136803F00F039D4266
:1010080029D332E062682C4B012A196802D111F405
:10101800003F06E0022A02D111F0007F01E011F042
:10102800020FBBD0996821F003010A439A60FFF7C9
:101038005DFC0646204B62689B6803F00C03B3EB2B
:10104800820FD8D0FFF752FC41F28833801B9842B8
:10105800F0D9032070BD136823F00F032B431360EE
:10106800136803F00F03AB4298D121684A0706D5ED
:101078001148836823F4E052E368134383600B0745
:1010880007D50D4A2169936823F4604343EAC103F5
:101098009360FFF74BFF084B084A9B68C3F30313A1
:1010A800D35CD840064B18600F20FFF7D9FB00200F
:1010B80070BD00BF003C0240003802403C130008ED
:1010C800080000207047FEE7FEE7FEE7FEE77047EE
:1010D80070477047FFF7FEBB0C4B00211A6842F0BF
:1010E80001021A6099601A6822F0847222F4803230
:1010F8001A60074A5A601A6822F480221A604FF070
:101108000062D960034B9A60704700BF0038024004
:101118001030002400ED00E00010A0E10000A0E382
:1011280008402DE90020A0E10030A0E1330000EBE9
:101138000840BDE81EFF2FE138402DE934509FE5F7
:1011480034309FE5033065E04341B0E1055083103A
:101158000500000A014044E2043035E50FE0A0E153
:1011680013FF2FE1000054E3F9FFFF1A6A0000EBB8
:101178003840BDE81EFF2FE164130008681300081B
:1011880070402DE964609FE564509FE5066065E066
:101198004661B0E10040A0130500000A014084E266
:1011A800043095E40FE0A0E113FF2FE1040056E1BD
:1011B800F9FFFF1A3C609FE53C509FE5066065E03B
:1011C8004F0000EB4661B0E10040A0130500000AA3
:1011D800014084E2043095E40FE0A0E113FF2FE121
:1011E800040056E1F9FFFF1A7040BDE81EFF2FE129
:1011F8005C1300085C130008641300085C13000803
:10120800D0C09FE5F0412DE900409CE548C194E538
:1012180000005CE353CF840204E09CE548C18405E8
:101228001F005EE30160A0E10050A0E10280A0E1A0
:101238000370A0E101108ED20F0000DA98309FE50C
:10124800000053E32100000A190EA0E300F020E398
:1012580000C050E21D00000A0000A0E30110A0E356
:1012680000E0A0E1483194E504008CE500308CE50D
:1012780048C184E588018CE58C018CE5000055E3C4
:101288000500001A0000A0E302E08EE204108CE5DD
:101298000E618CE7F041BDE81EFF2FE10100A0E3DD
:1012A8000E318CE0888083E588419CE5102EA0E112
:1012B800020084E188018CE5087183E5020055E3AA
:1012C8008C319C05022083018C218C05ECFFFFEA00
:1012D8000000E0E3EEFFFFEA501300080000000002
:1012E80008402DE910309FE5000053E30C009F15DE
:1012F80088FFFF1B0840BDE81EFF2FE1000000002B
:10130800401100080DC0A0E1F8DF2DE904B04CE25F
:1013180028D04BE2F06F9DE81EFF2FE10DC0A0E141
:10132800F8DF2DE904B04CE228D04BE2F06F9DE8DD
:041338001EFF2FE184
:10133C000000000000000000010203040607080979
:08134C00430000001000002026
:0813540070F0FF7F01000000B2
:08135C00E8120008A4020008D9
:04136400600200081B
:1013680010000000010000000024F400000000004C
:1013780000000000FC02002064030020CC030020D1
:101388000000000000000000000000000000000055
:101398000000000000000000000000000000000045
:1013A800000000004C1300080000000000000000CE
:1013B8000000000000000000000000000000000025
:1013C8000000000000000000000000000000000015
:1013D8000000000000000000000000000000000005
:1013E80000000000000000000000000000000000F5
:1013F80000000000000000000000000000000000E5
:1014080000000000000000000000000000000000D4
:1014180000000000000000000100000000000000C3
:101428000E33CDAB34126DE6ECDE05000B00000088
:1014380000000000000000000000000000000000A4
:101448000000000000000000000000000000000094
:101458000000000000000000000000000000000084
:101468000000000000000000000000000000000074
:04000005080006CD1C
:00000001FF
